{
  "contractName": "Utils",
  "abi": [
    {
      "constant": true,
      "inputs": [
        {
          "name": "_a",
          "type": "string"
        },
        {
          "name": "_b",
          "type": "string"
        }
      ],
      "name": "stringsEqual",
      "outputs": [
        {
          "name": "",
          "type": "bool"
        }
      ],
      "payable": false,
      "type": "function",
      "stateMutability": "pure"
    },
    {
      "constant": true,
      "inputs": [
        {
          "name": "x",
          "type": "bytes32"
        }
      ],
      "name": "bytes32ToString",
      "outputs": [
        {
          "name": "",
          "type": "string"
        }
      ],
      "payable": false,
      "type": "function",
      "stateMutability": "pure"
    }
  ],
  "bytecode": "0x6060604052341561000f57600080fd5b6102038061001e6000396000f300606060405260043610610041576000357c0100000000000000000000000000000000000000000000000000000000900463ffffffff16806313d1995014610046575b600080fd5b6100d9600480803590602001908201803590602001908080601f0160208091040260200160405190810160405280939291908181526020018383808284378201915050505050509190803590602001908201803590602001908080601f016020809104026020016040519081016040528093929190818152602001838380828437820191505050505050919050506100f3565b604051808215151515815260200191505060405180910390f35b6000806000846040518082805190602001908083835b60208310151561012e5780518252602082019150602081019050602083039250610109565b6001836020036101000a03801982511681845116808217855250505050505090500191505060405180910390209150836040518082805190602001908083835b602083101515610193578051825260208201915060208101905060208303925061016e565b6001836020036101000a03801982511681845116808217855250505050505090500191505060405180910390209050806000191682600019161492505050929150505600a165627a7a723058201e9dd5f6deea72108b7442b06fb8776d3c5ee085a4153132f829f98fd90f3d260029",
  "source": "pragma solidity ^0.4.17;\n\nlibrary Utils {\n\n  function stringsEqual(string _a, string _b) public pure returns (bool) {\n\t\tbytes32 hashA = keccak256(_a);\n\t\tbytes32 hashB = keccak256(_b);\n\t\treturn hashA == hashB;\n\t}\n}\n",
  "sourcePath": "/Users/ferostavii/code/copacoin_truffle/contracts/Utils.sol",
  "compiler": {
    "name": "solc",
    "version": "0.4.18+commit.9cf6e910.Emscripten.clang"
  },
  "schemaVersion": "1.0.1",
  "updatedAt": "2017-11-07T04:51:50.149Z"
}