{
  "contractName": "Voting",
  "abi": [
    {
      "constant": true,
      "inputs": [
        {
          "name": "",
          "type": "uint256"
        }
      ],
      "name": "proposals",
      "outputs": [
        {
          "name": "name",
          "type": "bytes32"
        },
        {
          "name": "votesCount",
          "type": "uint8"
        }
      ],
      "payable": false,
      "type": "function",
      "stateMutability": "view"
    },
    {
      "constant": false,
      "inputs": [
        {
          "name": "_proposal",
          "type": "bytes32"
        }
      ],
      "name": "addProposal",
      "outputs": [],
      "payable": false,
      "type": "function",
      "stateMutability": "nonpayable"
    },
    {
      "constant": true,
      "inputs": [
        {
          "name": "",
          "type": "uint256"
        }
      ],
      "name": "votes",
      "outputs": [
        {
          "name": "",
          "type": "uint256"
        }
      ],
      "payable": false,
      "type": "function",
      "stateMutability": "view"
    },
    {
      "constant": true,
      "inputs": [],
      "name": "getProposals",
      "outputs": [
        {
          "name": "",
          "type": "bytes32[]"
        }
      ],
      "payable": false,
      "type": "function",
      "stateMutability": "view"
    },
    {
      "constant": true,
      "inputs": [
        {
          "name": "_voter",
          "type": "address"
        }
      ],
      "name": "balanceOf",
      "outputs": [
        {
          "name": "",
          "type": "uint256"
        }
      ],
      "payable": false,
      "type": "function",
      "stateMutability": "view"
    },
    {
      "constant": false,
      "inputs": [
        {
          "name": "_index",
          "type": "uint256"
        }
      ],
      "name": "updateProposal",
      "outputs": [],
      "payable": false,
      "type": "function",
      "stateMutability": "nonpayable"
    },
    {
      "constant": true,
      "inputs": [],
      "name": "owner",
      "outputs": [
        {
          "name": "",
          "type": "address"
        }
      ],
      "payable": false,
      "type": "function",
      "stateMutability": "view"
    },
    {
      "constant": true,
      "inputs": [
        {
          "name": "x",
          "type": "bytes32"
        }
      ],
      "name": "bytes32ToString",
      "outputs": [
        {
          "name": "",
          "type": "string"
        }
      ],
      "payable": false,
      "type": "function",
      "stateMutability": "pure"
    },
    {
      "constant": true,
      "inputs": [],
      "name": "getProposalsCount",
      "outputs": [
        {
          "name": "",
          "type": "uint256"
        }
      ],
      "payable": false,
      "type": "function",
      "stateMutability": "view"
    },
    {
      "constant": true,
      "inputs": [
        {
          "name": "_index",
          "type": "uint256"
        }
      ],
      "name": "getProposalVotesCount",
      "outputs": [
        {
          "name": "proposal",
          "type": "uint8"
        }
      ],
      "payable": false,
      "type": "function",
      "stateMutability": "view"
    },
    {
      "constant": true,
      "inputs": [
        {
          "name": "_index",
          "type": "uint256"
        }
      ],
      "name": "getProposal",
      "outputs": [
        {
          "name": "proposal",
          "type": "string"
        }
      ],
      "payable": false,
      "type": "function",
      "stateMutability": "view"
    },
    {
      "constant": false,
      "inputs": [
        {
          "name": "_voter",
          "type": "address"
        },
        {
          "name": "_indexes",
          "type": "uint256[]"
        }
      ],
      "name": "voteProposals",
      "outputs": [],
      "payable": false,
      "type": "function",
      "stateMutability": "nonpayable"
    },
    {
      "constant": false,
      "inputs": [
        {
          "name": "newOwner",
          "type": "address"
        }
      ],
      "name": "transferOwnership",
      "outputs": [],
      "payable": false,
      "type": "function",
      "stateMutability": "nonpayable"
    },
    {
      "constant": false,
      "inputs": [
        {
          "name": "_voter",
          "type": "address"
        }
      ],
      "name": "addVoter",
      "outputs": [],
      "payable": false,
      "type": "function",
      "stateMutability": "nonpayable"
    },
    {
      "inputs": [],
      "payable": false,
      "type": "constructor",
      "stateMutability": "nonpayable"
    },
    {
      "anonymous": false,
      "inputs": [
        {
          "indexed": false,
          "name": "proposal",
          "type": "bytes32"
        }
      ],
      "name": "NewProposal",
      "type": "event"
    },
    {
      "anonymous": false,
      "inputs": [
        {
          "indexed": false,
          "name": "votesCount",
          "type": "uint256[]"
        },
        {
          "indexed": false,
          "name": "proposal",
          "type": "bytes32[]"
        },
        {
          "indexed": false,
          "name": "proposal",
          "type": "bytes32"
        }
      ],
      "name": "NewVote",
      "type": "event"
    },
    {
      "anonymous": false,
      "inputs": [
        {
          "indexed": true,
          "name": "previousOwner",
          "type": "address"
        },
        {
          "indexed": true,
          "name": "newOwner",
          "type": "address"
        }
      ],
      "name": "OwnershipTransferred",
      "type": "event"
    }
  ],
  "bytecode": "0x6060604052341561000f57600080fd5b336000806101000a81548173ffffffffffffffffffffffffffffffffffffffff021916908373ffffffffffffffffffffffffffffffffffffffff1602179055506100576100b2565b604051809103906000f080151561006d57600080fd5b600560006101000a81548173ffffffffffffffffffffffffffffffffffffffff021916908373ffffffffffffffffffffffffffffffffffffffff1602179055506100c2565b6040516108538061140883390190565b611337806100d16000396000f3006060604052600436106100d0576000357c0100000000000000000000000000000000000000000000000000000000900463ffffffff168063013cf08b146100d557806306efe3b0146101215780635df813301461014857806362564c481461017f57806370a08231146101e95780638412b2cf146102365780638da5cb5b146102595780639201de55146102ae57806398e527d31461034e578063bc597d9f14610377578063c7f758a8146103b4578063e2d9294514610450578063f2fde38b146104c9578063f4ab9adf14610502575b600080fd5b34156100e057600080fd5b6100f6600480803590602001909190505061053b565b6040518083600019166000191681526020018260ff1660ff1681526020019250505060405180910390f35b341561012c57600080fd5b61014660048080356000191690602001909190505061057b565b005b341561015357600080fd5b61016960048080359060200190919050506106ec565b6040518082815260200191505060405180910390f35b341561018a57600080fd5b610192610710565b6040518080602001828103825283818151815260200191508051906020019060200280838360005b838110156101d55780820151818401526020810190506101ba565b505050509050019250505060405180910390f35b34156101f457600080fd5b610220600480803573ffffffffffffffffffffffffffffffffffffffff169060200190919050506107b6565b6040518082815260200191505060405180910390f35b341561024157600080fd5b610257600480803590602001909190505061089f565b005b341561026457600080fd5b61026c61090b565b604051808273ffffffffffffffffffffffffffffffffffffffff1673ffffffffffffffffffffffffffffffffffffffff16815260200191505060405180910390f35b34156102b957600080fd5b6102d3600480803560001916906020019091905050610930565b6040518080602001828103825283818151815260200191508051906020019080838360005b838110156103135780820151818401526020810190506102f8565b50505050905090810190601f1680156103405780820380516001836020036101000a031916815260200191505b509250505060405180910390f35b341561035957600080fd5b610361610b1d565b6040518082815260200191505060405180910390f35b341561038257600080fd5b6103986004808035906020019091905050610b2a565b604051808260ff1660ff16815260200191505060405180910390f35b34156103bf57600080fd5b6103d56004808035906020019091905050610b61565b6040518080602001828103825283818151815260200191508051906020019080838360005b838110156104155780820151818401526020810190506103fa565b50505050905090810190601f1680156104425780820380516001836020036101000a031916815260200191505b509250505060405180910390f35b341561045b57600080fd5b6104c7600480803573ffffffffffffffffffffffffffffffffffffffff1690602001909190803590602001908201803590602001908080602002602001604051908101604052809392919081815260200183836020028082843782019150505050505091905050610b99565b005b34156104d457600080fd5b610500600480803573ffffffffffffffffffffffffffffffffffffffff16906020019091905050610fcb565b005b341561050d57600080fd5b610539600480803573ffffffffffffffffffffffffffffffffffffffff16906020019091905050611120565b005b60038181548110151561054a57fe5b90600052602060002090600202016000915090508060000154908060010160009054906101000a900460ff16905082565b6000809054906101000a900473ffffffffffffffffffffffffffffffffffffffff1673ffffffffffffffffffffffffffffffffffffffff163373ffffffffffffffffffffffffffffffffffffffff161415156105d657600080fd5b8060008090505b60038054905081101561062e576003818154811015156105f957fe5b9060005260206000209060020201600001546000191682600019161415151561062157600080fd5b80806001019150506105dd565b60038054806001018281610642919061124e565b91600052602060002090600202016000604080519081016040528087600019168152602001600060ff1681525090919091506000820151816000019060001916905560208201518160010160006101000a81548160ff021916908360ff1602179055505050507f2fa055ed2a16bf675cb77388be42cc263fd4f3feaac282dbcce8ae28691c960b8360405180826000191660001916815260200191505060405180910390a1505050565b6001818154811015156106fb57fe5b90600052602060002090016000915090505481565b610718611280565b610720611280565b60006003805490506040518059106107355750595b90808252806020026020018201604052509150600090505b6003805490508110156107ae5760038181548110151561076957fe5b906000526020600020906002020160000154828281518110151561078957fe5b906020019060200201906000191690816000191681525050808060010191505061074d565b819250505090565b6000600560009054906101000a900473ffffffffffffffffffffffffffffffffffffffff1673ffffffffffffffffffffffffffffffffffffffff166370a08231836000604051602001526040518263ffffffff167c0100000000000000000000000000000000000000000000000000000000028152600401808273ffffffffffffffffffffffffffffffffffffffff1673ffffffffffffffffffffffffffffffffffffffff168152602001915050602060405180830381600087803b151561087d57600080fd5b6102c65a03f1151561088e57600080fd5b505050604051805190509050919050565b60016003828154811015156108b057fe5b906000526020600020906002020160010160009054906101000a900460ff16016003828154811015156108df57fe5b906000526020600020906002020160010160006101000a81548160ff021916908360ff16021790555050565b6000809054906101000a900473ffffffffffffffffffffffffffffffffffffffff1681565b610938611294565b6109406112a8565b600080600061094d6112a8565b602060405180591061095c5750595b9080825280601f01601f1916602001820160405250945060009350600092505b6020831015610a3a578260080260020a876001900402600102915060007f010000000000000000000000000000000000000000000000000000000000000002827effffffffffffffffffffffffffffffffffffffffffffffffffffffffffffff1916141515610a2d578185858151811015156109f457fe5b9060200101907effffffffffffffffffffffffffffffffffffffffffffffffffffffffffffff1916908160001a90535083806001019450505b828060010193505061097c565b83604051805910610a485750595b9080825280601f01601f19166020018201604052509050600092505b83831015610b10578483815181101515610a7a57fe5b9060200101517f010000000000000000000000000000000000000000000000000000000000000090047f0100000000000000000000000000000000000000000000000000000000000000028184815181101515610ad357fe5b9060200101907effffffffffffffffffffffffffffffffffffffffffffffffffffffffffffff1916908160001a9053508280600101935050610a64565b8095505050505050919050565b6000600380549050905090565b6000600382815481101515610b3b57fe5b906000526020600020906002020160010160009054906101000a900460ff169050919050565b610b69611294565b610b92600383815481101515610b7b57fe5b906000526020600020906002020160000154610930565b9050919050565b610ba16112bc565b610ba9611280565b60008060001515600460008873ffffffffffffffffffffffffffffffffffffffff1673ffffffffffffffffffffffffffffffffffffffff16815260200190815260200160002060009054906101000a900460ff161515141515610c0b57600080fd5b6000600560009054906101000a900473ffffffffffffffffffffffffffffffffffffffff1673ffffffffffffffffffffffffffffffffffffffff166370a08231886000604051602001526040518263ffffffff167c0100000000000000000000000000000000000000000000000000000000028152600401808273ffffffffffffffffffffffffffffffffffffffff1673ffffffffffffffffffffffffffffffffffffffff168152602001915050602060405180830381600087803b1515610cd257600080fd5b6102c65a03f11515610ce357600080fd5b50505060405180519050111515610cf957600080fd5b600560009054906101000a900473ffffffffffffffffffffffffffffffffffffffff1673ffffffffffffffffffffffffffffffffffffffff16631dbf3bc760016000604051602001526040518263ffffffff167c010000000000000000000000000000000000000000000000000000000002815260040180828152602001915050602060405180830381600087803b1515610d9357600080fd5b6102c65a03f11515610da457600080fd5b505050604051805190501515610db957600080fd5b8451604051805910610dc85750595b908082528060200260200182016040525093508451604051805910610dea5750595b90808252806020026020018201604052509250600091505b8451821015610eaa578482815181101515610e1957fe5b906020019060200201519050610e2e8161089f565b610e3781610b2a565b60ff168483815181101515610e4857fe5b9060200190602002018181525050600381815481101515610e6557fe5b9060005260206000209060020201600001548383815181101515610e8557fe5b9060200190602002019060001916908160001916815250508180600101925050610e02565b6001600460008873ffffffffffffffffffffffffffffffffffffffff1673ffffffffffffffffffffffffffffffffffffffff16815260200190815260200160002060006101000a81548160ff0219169083151502179055507f246d4d17e047143b6e98c9ebe713f2d985bcecd30f9e4d4744d6864e776a3b028484604051808060200180602001838103835285818151815260200191508051906020019060200280838360005b83811015610f6c578082015181840152602081019050610f51565b50505050905001838103825284818151815260200191508051906020019060200280838360005b83811015610fae578082015181840152602081019050610f93565b5050505090500194505050505060405180910390a1505050505050565b6000809054906101000a900473ffffffffffffffffffffffffffffffffffffffff1673ffffffffffffffffffffffffffffffffffffffff163373ffffffffffffffffffffffffffffffffffffffff1614151561102657600080fd5b600073ffffffffffffffffffffffffffffffffffffffff168173ffffffffffffffffffffffffffffffffffffffff161415151561106257600080fd5b8073ffffffffffffffffffffffffffffffffffffffff166000809054906101000a900473ffffffffffffffffffffffffffffffffffffffff1673ffffffffffffffffffffffffffffffffffffffff167f8be0079c531659141344cd1fd0a4f28419497f9722a3daafe3b4186f6b6457e060405160405180910390a3806000806101000a81548173ffffffffffffffffffffffffffffffffffffffff021916908373ffffffffffffffffffffffffffffffffffffffff16021790555050565b6000809054906101000a900473ffffffffffffffffffffffffffffffffffffffff1673ffffffffffffffffffffffffffffffffffffffff163373ffffffffffffffffffffffffffffffffffffffff1614151561117b57600080fd5b600560009054906101000a900473ffffffffffffffffffffffffffffffffffffffff1673ffffffffffffffffffffffffffffffffffffffff1663fa695a97826040518263ffffffff167c0100000000000000000000000000000000000000000000000000000000028152600401808273ffffffffffffffffffffffffffffffffffffffff1673ffffffffffffffffffffffffffffffffffffffff168152602001915050600060405180830381600087803b151561123757600080fd5b6102c65a03f1151561124857600080fd5b50505050565b81548183558181151161127b5760020281600202836000526020600020918201910161127a91906112d0565b5b505050565b602060405190810160405280600081525090565b602060405190810160405280600081525090565b602060405190810160405280600081525090565b602060405190810160405280600081525090565b61130891905b80821115611304576000808201600090556001820160006101000a81549060ff0219169055506002016112d6565b5090565b905600a165627a7a72305820840ffc2af195a0e91c1035652dfef2a9cd087d0df97d05dde4c59eedd5b3ac630029606060405233600160006101000a81548173ffffffffffffffffffffffffffffffffffffffff021916908373ffffffffffffffffffffffffffffffffffffffff1602179055506107ff806100546000396000f30060606040526004361061008e576000357c0100000000000000000000000000000000000000000000000000000000900463ffffffff16806318160ddd146100935780631dbf3bc7146100bc57806340c10f19146100f757806370a08231146101395780638da5cb5b14610186578063a9059cbb146101db578063f2fde38b14610235578063fa695a971461026e575b600080fd5b341561009e57600080fd5b6100a66102a7565b6040518082815260200191505060405180910390f35b34156100c757600080fd5b6100dd60048080359060200190919050506102ad565b604051808215151515815260200191505060405180910390f35b341561010257600080fd5b610137600480803573ffffffffffffffffffffffffffffffffffffffff169060200190919080359060200190919050506102e2565b005b341561014457600080fd5b610170600480803573ffffffffffffffffffffffffffffffffffffffff1690602001909190505061039e565b6040518082815260200191505060405180910390f35b341561019157600080fd5b6101996103e7565b604051808273ffffffffffffffffffffffffffffffffffffffff1673ffffffffffffffffffffffffffffffffffffffff16815260200191505060405180910390f35b34156101e657600080fd5b61021b600480803573ffffffffffffffffffffffffffffffffffffffff1690602001909190803590602001909190505061040d565b604051808215151515815260200191505060405180910390f35b341561024057600080fd5b61026c600480803573ffffffffffffffffffffffffffffffffffffffff16906020019091905050610611565b005b341561027957600080fd5b6102a5600480803573ffffffffffffffffffffffffffffffffffffffff16906020019091905050610769565b005b60005481565b60006102db600160009054906101000a900473ffffffffffffffffffffffffffffffffffffffff168361040d565b9050919050565b600160009054906101000a900473ffffffffffffffffffffffffffffffffffffffff1673ffffffffffffffffffffffffffffffffffffffff163373ffffffffffffffffffffffffffffffffffffffff1614151561033e57600080fd5b80600080828254019250508190555080600260008473ffffffffffffffffffffffffffffffffffffffff1673ffffffffffffffffffffffffffffffffffffffff168152602001908152602001600020600082825401925050819055505050565b6000600260008373ffffffffffffffffffffffffffffffffffffffff1673ffffffffffffffffffffffffffffffffffffffff168152602001908152602001600020549050919050565b600160009054906101000a900473ffffffffffffffffffffffffffffffffffffffff1681565b60008073ffffffffffffffffffffffffffffffffffffffff168373ffffffffffffffffffffffffffffffffffffffff161415151561044a57600080fd5b600260003373ffffffffffffffffffffffffffffffffffffffff1673ffffffffffffffffffffffffffffffffffffffff16815260200190815260200160002054821115151561049857600080fd5b81600260003373ffffffffffffffffffffffffffffffffffffffff1673ffffffffffffffffffffffffffffffffffffffff1681526020019081526020016000205403600260003373ffffffffffffffffffffffffffffffffffffffff1673ffffffffffffffffffffffffffffffffffffffff1681526020019081526020016000208190555081600260008573ffffffffffffffffffffffffffffffffffffffff1673ffffffffffffffffffffffffffffffffffffffff1681526020019081526020016000205401600260008573ffffffffffffffffffffffffffffffffffffffff1673ffffffffffffffffffffffffffffffffffffffff168152602001908152602001600020819055508273ffffffffffffffffffffffffffffffffffffffff163373ffffffffffffffffffffffffffffffffffffffff167fddf252ad1be2c89b69c2b068fc378daa952ba7f163c4a11628f55a4df523b3ef846040518082815260200191505060405180910390a36001905092915050565b600160009054906101000a900473ffffffffffffffffffffffffffffffffffffffff1673ffffffffffffffffffffffffffffffffffffffff163373ffffffffffffffffffffffffffffffffffffffff1614151561066d57600080fd5b600073ffffffffffffffffffffffffffffffffffffffff168173ffffffffffffffffffffffffffffffffffffffff16141515156106a957600080fd5b8073ffffffffffffffffffffffffffffffffffffffff16600160009054906101000a900473ffffffffffffffffffffffffffffffffffffffff1673ffffffffffffffffffffffffffffffffffffffff167f8be0079c531659141344cd1fd0a4f28419497f9722a3daafe3b4186f6b6457e060405160405180910390a380600160006101000a81548173ffffffffffffffffffffffffffffffffffffffff021916908373ffffffffffffffffffffffffffffffffffffffff16021790555050565b600160009054906101000a900473ffffffffffffffffffffffffffffffffffffffff1673ffffffffffffffffffffffffffffffffffffffff163373ffffffffffffffffffffffffffffffffffffffff161415156107c557600080fd5b6107d08160016102e2565b505600a165627a7a7230582057fae0227d5331846806da2b580ae2cd063d5de62ae94b36350c011d04c120fd0029",
  "source": "pragma solidity ^0.4.17;\n\nimport \"../node_modules/zeppelin-solidity/contracts/ownership/Ownable.sol\";\nimport \"./ClassCoin.sol\";\nimport \"./Utils.sol\";\n\ncontract Voting is Ownable {\n\n    using Utils for Utils;\n\n    //bytes32[] public proposals;\n    uint256[] public votes;\n    address owner;\n\n    event NewProposal(bytes32 proposal);\n    event NewVote(uint256[] votesCount, bytes32[] proposal);\n\n    struct Proposal {\n        bytes32 name;\n        uint8 votesCount;\n    }\n    Proposal[] public proposals;\n    mapping (address => bool) voters;\n    ClassCoin coinContract;\n\n    function Voting() public {\n        coinContract = new ClassCoin();\n    }\n\n    function getProposals() public constant returns (bytes32[]) {\n      bytes32[] memory strings = new bytes32[](proposals.length);\n      for (uint i = 0; i < proposals.length; i++) {\n        strings[i] = proposals[i].name;\n      }\n      return strings;\n    }\n\n    modifier proposalNotExists(bytes32 _proposal) {\n        for (uint256 i = 0; i < proposals.length ; i++) {\n            require(_proposal != proposals[i].name);\n        }\n        _;\n    }\n\n    function addProposal(bytes32 _proposal) public onlyOwner proposalNotExists(_proposal) {\n        proposals.push(Proposal({name: _proposal, votesCount: 0}));\n        NewProposal(_proposal);\n    }\n\n    function addVoter(address _voter) public onlyOwner {\n      coinContract.mintOne(_voter);\n    }\n\n    function bytes32ToString(bytes32 x) public pure returns (string) {\n        bytes memory bytesString = new bytes(32);\n        uint charCount = 0;\n        for (uint j = 0; j < 32; j++) {\n            byte char = byte(bytes32(uint(x) * 2 ** (8 * j)));\n            if (char != 0) {\n                bytesString[charCount] = char;\n                charCount++;\n            }\n        }\n        bytes memory bytesStringTrimmed = new bytes(charCount);\n        for (j = 0; j < charCount; j++) {\n            bytesStringTrimmed[j] = bytesString[j];\n        }\n        return string(bytesStringTrimmed);\n    }\n\n    function getProposal(uint256 _index) public constant returns (string proposal) {\n        return bytes32ToString(proposals[_index].name);\n    }\n\n    function getProposalVotesCount(uint256 _index) public constant returns (uint8 proposal) {\n        return proposals[_index].votesCount;\n    }\n\n    function getProposalsCount() public constant returns (uint256) {\n        return proposals.length;\n    }\n\n    // Helper function, to interact from Truffle\n    function balanceOf(address _voter) public constant returns (uint) {\n      return coinContract.balanceOf(_voter);\n    }\n\n    function updateProposal(uint _index) public {\n        proposals[_index].votesCount = proposals[_index].votesCount + 1;\n    }\n\n    function voteProposals(address _voter, uint256[] _indexes) public {\n        require(voters[_voter] == false);\n        require(coinContract.balanceOf(_voter) > 0);\n        require(coinContract.spend(1));\n\n        uint[] memory counts = new uint[](_indexes.length);\n        bytes32[] memory names = new bytes32[](_indexes.length);\n        for (uint i = 0; i < _indexes.length; i++) {\n            uint index = _indexes[i];\n            updateProposal(index);\n            counts[i] = getProposalVotesCount(index);\n            names[i] = proposals[index].name;\n        }\n        voters[_voter] = true;\n        NewVote(counts, names);\n    }\n\n}\n",
  "sourcePath": "/Users/ferostavii/code/copacoin_truffle/contracts/Voting.sol",
  "compiler": {
    "name": "solc",
    "version": "0.4.18+commit.9cf6e910.Emscripten.clang"
  },
  "schemaVersion": "1.0.1",
  "updatedAt": "2017-11-07T04:51:50.210Z"
}